:1000000012C019C018C017C016C015C014C013C044
:1000100012C011C010C00FC00EC00DC00CC00BC06C
:100020000AC009C008C011241FBECFE5D4E0DEBF5E
:10003000CDBF02D059C4E4CFC7E0D0E013D421979C
:10004000E9F716D015D014D013D012D011D030D07B
:100050002FD02ED02DD02CD0C7E0D0E064D0219767
:10006000E9F79CD09BD09AD099D098D097D0E4CF84
:10007000B2D0BED02FE788E391E02150804090407D
:10008000E1F700C0000017D12FE788E391E021508D
:1000900080409040E1F700C000006FD12FE788E377
:1000A00091E0215080409040E1F700C000000895A9
:1000B00092D02CD2C3D187EA91E60197F1F700C024
:1000C000000024D2D5D187EA91E60197F1F700C06C
:1000D00000001CD2E7D187EA91E60197F1F700C052
:1000E000000014D22BD287EA91E60197F1F700C005
:1000F00000000CD271D287EA91E60197F1F700C0B7
:10010000000004D24FD287EA91E60197F1F700C0D0
:100110000000FCD12DD287EA91E60197F1F700C0EB
:100120000000F4D1D9C157D0F1D188D189E698E146
:100130000197F1F700C00000E9D1CED189E698E13E
:100140000197F1F700C00000E1D112D289E698E1F1
:100150000197F1F700C00000D9D124D289E698E1D7
:100160000197F1F700C00000D1D136D289E698E1BD
:100170000197F1F700C00000C9D1E0D189E698E10C
:100180000197F1F700C00000C1D18CD189E698E158
:100190000197F1F700C00000B9D16AC11CD04ED15F
:1001A0009BD1E6D18FE493EC0197F1F700C00000FA
:1001B00045D1ACD111D28FE493EC0197F1F700C097
:1001C00000003CD155D16ED18FE493EC0197F1F74B
:1001D00000C000000895A19A8B9AA59AA29A889AC5
:1001E000A49AA39A8A9A899A8E9A8F9AB89A08950D
:1001F000969AA99A83EC99E00197F1F700C0000064
:1002000085B38C7F85BB939A83EC99E00197F1F7D6
:1002100000C0000082B3807F82BBAD9A83EC99E07E
:100220000197F1F700C0000085B3807C85BBAA9AD6
:1002300083EC99E00197F1F700C0000085B3887F57
:1002400085BB909A83EC99E00197F1F700C000001C
:100250009098AC9A83EC99E00197F1F700C0000008
:1002600085B3807E85BBAB9A83EC99E00197F1F76B
:1002700000C0000085B3807F85BB929A83EC99E033
:100280000197F1F700C0000082B3887F82BB919A8A
:1002900083EC99E00197F1F700C0000082B38C7FF6
:1002A00082BB82B3807882BB83EC99E00197F1F73F
:1002B00000C000000895979AA99A83EC99E00197ED
:1002C000F1F700C0000085B38C7F85BB939A83EC67
:1002D00099E00197F1F700C0000082B3807F82BBF4
:1002E000AD9A83EC99E00197F1F700C0000085B367
:1002F000807C85BBAA9A83EC99E00197F1F700C056
:10030000000085B3887F85BB909A83EC99E00197C4
:10031000F1F700C000009098AC9A83EC99E0019747
:10032000F1F700C0000085B3807E85BBAB9A83ECFB
:1003300099E00197F1F700C0000085B3807F85BB8D
:10034000929A83EC99E00197F1F700C0000082B324
:10035000887F82BB919A83EC99E00197F1F700C006
:10036000000082B38C7F82BB82B312BA83EC99E027
:100370000197F1F700C000000895C09AA99A83EC94
:1003800099E00197F1F700C0000085B38C7F85BB31
:10039000939A83EC99E00197F1F700C0000082B3D3
:1003A000807F82BBAD9A83EC99E00197F1F700C0A2
:1003B000000085B3807C85BBAA9A83EC99E0019705
:1003C000F1F700C0000085B3887F85BB909A83EC6D
:1003D00099E00197F1F700C000009098AC9A83EC87
:1003E00099E00197F1F700C0000085B3807E85BBDE
:1003F000AB9A83EC99E00197F1F700C0000085B358
:10040000807F85BB929A83EC99E00197F1F700C059
:10041000000082B3887F82BB919A83EC99E00197B8
:10042000F1F700C0000082B38C7F82BBC09883ECE0
:1004300099E00197F1F700C000000895969AA99AF3
:1004400083EC99E00197F1F700C00000979A83ECE4
:1004500099E00197F1F700C00000C09A83EC99E0A1
:100460000197F1F700C0000085B38C7F85BB08952C
:10047000969A939A83EC99E00197F1F700C00000F7
:10048000979A83EC99E00197F1F700C00000C09AB9
:1004900083EC99E00197F1F700C0000082B3807F00
:1004A00082BB0895969AAD9A83EC99E00197F1F793
:1004B00000C00000979A83EC99E00197F1F700C023
:1004C0000000C09A83EC99E00197F1F700C00000AA
:1004D00085B3807C85BB0895969AAA9A83EC99E0AF
:1004E0000197F1F700C00000979A83EC99E001971B
:1004F000F1F700C00000C09A83EC99E00197F1F792
:1005000000C0000085B3887F85BB0895969A909AB5
:1005100083EC99E00197F1F700C00000979A83EC13
:1005200099E00197F1F700C00000C09A83EC99E0D0
:100530000197F1F700C0000090980895969AAC9A40
:1005400083EC99E00197F1F700C00000979A83ECE3
:1005500099E00197F1F700C00000C09A83EC99E0A0
:100560000197F1F700C0000085B3807E85BB089538
:10057000969AAB9A83EC99E00197F1F700C00000DE
:10058000979A83EC99E00197F1F700C00000C09AB8
:1005900083EC99E00197F1F700C0000085B3807FFC
:1005A00085BB0895969A929A83EC99E00197F1F7AA
:1005B00000C00000979A83EC99E00197F1F700C022
:1005C0000000C09A83EC99E00197F1F700C00000A9
:1005D00082B3887F82BB0895969A919A83EC99E0C2
:1005E0000197F1F700C00000979A83EC99E001971A
:1005F000F1F700C00000C09A83EC99E00197F1F791
:1006000000C0000082B38C7F82BB0895969AA99A9D
:1006100083EC99E00197F1F700C0000085B38C7F6F
:1006200085BB939A83EC99E00197F1F700C0000035
:1006300082B3807F82BBAD9A83EC99E00197F1F79A
:1006400000C0000085B3807C85BB82B3807882BB0C
:100650000895969AAA9A83EC99E00197F1F700C061
:10066000000085B3887F85BB909A83EC99E0019761
:10067000F1F700C000009098AC9A83EC99E00197E4
:10068000F1F700C0000085B3807E85BB82B380781F
:1006900082BB0895969AAB9A83EC99E00197F1F7A3
:1006A00000C0000085B3807F85BB929A83EC99E0FF
:1006B0000197F1F700C0000082B3887F82BB919A56
:1006C00083EC99E00197F1F700C0000082B38C7FC2
:1006D00082BB82B3807882BB0895979AA99A83ECF3
:1006E00099E00197F1F700C0000085B38C7F85BBCE
:1006F000939A83EC99E00197F1F700C0000082B370
:10070000807F82BBAD9A83EC99E00197F1F700C03E
:10071000000085B3807C85BB82B312BA0895979A96
:10072000AA9A83EC99E00197F1F700C0000085B325
:10073000887F85BB909A83EC99E00197F1F700C020
:1007400000009098AC9A83EC99E00197F1F700C013
:10075000000085B3807E85BB82B312BA0895979A54
:10076000AB9A83EC99E00197F1F700C0000085B3E4
:10077000807F85BB929A83EC99E00197F1F700C0E6
:10078000000082B3887F82BB919A83EC99E0019745
:10079000F1F700C0000082B38C7F82BB82B312BA33
:1007A0000895C09AA99A83EC99E00197F1F700C0E7
:1007B000000085B38C7F85BB939A83EC99E0019709
:1007C000F1F700C0000082B3807F82BBAD9A83EC5A
:1007D00099E00197F1F700C0000085B3807C85BBEC
:1007E000C0980895C09AAA9A83EC99E00197F1F70E
:1007F00000C0000085B3887F85BB909A83EC99E0A8
:100800000197F1F700C000009098AC9A83EC99E052
:100810000197F1F700C0000085B3807E85BBC098CA
:100820000895C09AAB9A83EC99E00197F1F700C064
:10083000000085B3807F85BB929A83EC99E0019795
:10084000F1F700C0000082B3887F82BB919A83ECED
:1008500099E00197F1F700C0000082B38C7F82BB62
:10086000C0980895B8DC5BDFD1DE87EA91E6019796
:10087000F1F700C0000053DFECDE87EA91E6019754
:10088000F1F700C000004BDF05DF87EA91E6019732
:10089000F1F700C0000043DF62DF87EA91E60197CD
:1008A000F1F700C000003BDFBCDF87EA91E601976B
:1008B000F1F700C0000033DF95DF87EA91E601978A
:1008C000F1F700C000002BDF6CDF87EA91E60197AB
:1008D000F1F700C0000023DF00DF87EA91E601970F
:0C08E000F1F700C000000895F894FFCF6D
:00000001FF
